:0400000043EF01F0D9
:100008000182D9CF76F0DACF77F0F3CF78F0F4CF5A
:1000180079F0F6CF7AF0F7CF7BF0F8CF7CF0F5CF18
:100028007DF00E0138A11DD00E0138910E013991D5
:100038000201676B3EEC48F00ED0020132A107D0F6
:10004800030E0F015F6F05D00E012A810AD00F0140
:100058005F6B6080F9D70001DB51030A02E0070AF1
:10006800ECE10E0134A185D00E01349160B0FED7C9
:1000780079D0635064CF71F00001726B71C072F077
:10008800716B71130001CE51020D240EF324D96E49
:10009800020EF420DA6E71C0DEFF72C0DDFF010EC1
:1000A8000001CE250001606F616B000E6123000125
:1000B800636B070E626F26EC44F00001605100018B
:1000C800CE6F030E0001DB1954E10001CE51020D81
:1000D800240EF324D96E020EF420DA6EDE500201EB
:1000E800565DDE50575945E2AEEC4EF042D06350B3
:1000F80064CF71F00001726B71C072F0716B711195
:1001080002015C6F0001725102015D6F5CC271F007
:100118005DC272F00001D89071377237D89071378C
:10012800723771C07EF072C07FF07EC054F27FC01B
:1001380055F21FD0635064CF71F00001726B71C02B
:1001480072F0716B7113000E721372BF07D0710ECB
:10015800715D010E725902E3010E01D0000E020119
:10016800686F07D00F015F51E5E0020A82E0010ADB
:10017800BEE00E0133AB71D00E01339BCDCF71F0D1
:10018800CECF72F00F0E0001736FD89072337133B7
:10019800732FFBD7C150C710746FC250C810756F4A
:1001A800D89074377537715174137251751374C0C0
:1001B80032F275C033F20201346B356BCDCF71F07A
:1001C800CECF72F0060E0001736FD8907233713380
:1001D800732FFBD7D89071377237A70E7125F66E3B
:1001E800AF0E7221F76EF86A000EF8220900F5CFFB
:1001F8003AF20A00F5CF3BF232C260F033C261F046
:1002080034C262F035C263F0E80E0001646F030E79
:10021800656F666B676BA5EC47F002013A51000108
:1002280060250201366F3B51000161210201376FE1
:10023800000E000162210201386F000E00016321E7
:100248000201396F8ACF71F03F0E0001711703E187
:10025800010E0201EF6FE1EC2DF07DC0F5FF7CC0CF
:10026800F8FF7BC0F7FF7AC0F6FF79C0F4FF78C0CB
:10027800F3FF77C0DAFF76C0D9FF01921100EFEFE4
:1002880041F0670E0101936F010E946F26EF0BF09A
:10029800250E0101A71909E045EC0BF0A7C1DFFF06
:1002A8000101634B642B26EF0BF001019B6B9C6BE8
:1002B8000101A86BA96B11D00101A8870BD001011E
:1002C800A88108D00101A88305D00101A98702D01F
:1002D8000101A8850101654B662B88EC0BF0200A0B
:1002E800EEE0030AF2E0080AEDE0060AE5E01D0A7E
:1002F800EFE00101A8A302D00101A8910101A8A77C
:1003080002D00101A89588EC0BF017EC4EF0000123
:100318002DE301019B6B9C6B9BC180F09CC181F01C
:10032800000E0001C4EC0CF025EC4DF080C09BF1F0
:1003380081C09CF1D00E01016F6F706988EC0BF0E1
:10034800716F726B6F517127705172237151010176
:100358009B270101725101019C230101654B662B0A
:1003680088EC0BF017EC4EF00001D6E288EC0BF0AD
:100378002E0A2DE10101A98D0101654B662B0101B2
:10038800A56BA66B1CD0A5C180F0A6C181F0000E9C
:100398000001C4EC0CF025EC4DF088EC0BF00001EA
:1003A8008027000E8123D00E80250101A56FFF0E46
:1003B800000181210101A66F0101654B662B88ECC4
:1003C8000BF017EC4EF0000101E2DDD0DCD70101A3
:1003D800A56BA66B0101A989D6D00101A889D3D044
:1003E8000101A98501D10101A88B0101A981FCD0D6
:1003F8000101A88B0101A983F7D00101A88DF4D0D0
:100408000101A88B0101A88FEFD00EEC0CF0DECF14
:100418008EF1DECF8FF1DDCF90F1030E0101A6EC56
:100428000CF001018E518F11901109E1970E010115
:100438008E6FFF0E8F6F8E11D8A4000E906F010182
:10044800916B926B03D00101914B922B0101915159
:1004580001018E2501016F6F0101925101018F2168
:100468000101706F000E010190210101716FAAEC6A
:100478000CF071C1F8FFF8BA03D00800F55002D0AB
:1004880002EC27F00009DFE10101A551A6110DE0FA
:10049800010191510101A55D010192510101A65986
:1004A80004E2A5C191F1A6C192F101019B5101019C
:1004B800915D01019C510101925909E2010191519B
:1004C80001019B5F0101925101019C5B03D0010175
:1004D8009B6B9C6B0101A8B727D007D045EC0BF0AC
:1004E800200EDF6E0101634B642B0101B4EC0CF0AC
:1004F800F5E19C2919E0F2D78EC1F6FF8FC1F7FF0D
:1005080090C1F8FF45EC0BF0F8BA03D00800F5509D
:1005180002D002EC27F0DF6E01018E2B000E8F2334
:1005280090230101634B642B01019107D8A0920726
:100538009129E2E19229E0E10101A8A726EF0BF059
:1005480007D045EC0BF0200EDF6E0101634B642BE6
:100558000101B4EC0CF0F5E19C2902E126EF0BF067
:10056800F0D7A70E01018E6F010E8F6F8E11D8A4E0
:10057800200E906F0101926B010E916F85D7C00E0E
:100588000101A81331D065C1F6FF66C1F7FF01016B
:1005980085EC0CF00101A75102E131EF0BF0450A9F
:1005A80001E121D7020A01E123D71F0A01E128D777
:1005B8003C0A1AE0010A01E118D7030A01E110D741
:1005C800010A01E117D70E0A0FE0050A01E105D774
:1005D800030A01E112D71C0A01E117D7060ACFE086
:1005E8000D0A01E10FD7BDD7070E0101A91502E1D8
:1005F800C7EF08F00101A9A904D00101A66B060EF6
:10060800A56F0EEC0CF0DECF9DF1DECF9EF1DECFB4
:100618009FF1DECFA0F1040E0101A6EC0CF0010160
:10062800A0AF15D09DC180F09EC181F09FC182F01E
:10063800A0C183F0B7EC4DF080C09DF181C09EF160
:1006480082C09FF183C0A0F1030E0101A81301012C
:10065800996B9A6B010196EC0CF06BE001019F35E8
:10066800A035820F0101996F9A6BFF0E9A23010141
:100678009907D8A09A0799C180F09AC181F0000E15
:1006880000019BEC13F025EC4DF080C099F181C07E
:100698009AF19BEC0CF00001BCEC0CF02FEC3FF055
:1006A800BCC099F1BDC09AF101019AAF04D0010113
:1006B8009907D8A09A0701019951000856EC0FF044
:1006C80061EC0CF095C10AF196C10BF197C10CF1E0
:1006D80098C10DF12BEC0CF01FEC17F00AC195F145
:1006E8000BC196F10CC197F10DC198F1C8EC0BF054
:1006F800000E01015B6F5C6F800EC0EC0CF056ECD5
:1007080040F0010105E201019907D8A09A0711D02C
:10071800C8EC0BF0000E01015B6F5C6F200E5D6F83
:10072800410E5E6F56EC40F0010103E30101994B65
:100738009A2B01019ABF04D09A5106E1990504E267
:10074800010E0101A76F02D099C1A7F10101A9B15A
:100758001AD00101A9A38FD201019AAF05D0FC0ECE
:10076800995DFF0E9A590FE30101A5510101995DA9
:100778009A51800A01016F6F0101A651800A010197
:100788006F5901E278D20101A551A61107E00101D4
:10079800A9A304D00101A507D8A0A6070101A65165
:1007A80003E1090EA55D04E3080E0101A76F02D05D
:1007B800A5C1A7F1010196EC0CF001E196D058EC27
:1007C8000CF00101A7510101995D56EC0FF06AEC9C
:1007D8000CF036EC1EF046EC0CF05FEC0BF059EC2C
:1007E8003DF045C180F046C181F047C182F048C163
:1007F80083F0000E6BEC2EF0D1EC0BF0B6EC0BF0A6
:1008080055EC4AF04FC157F150C158F151C159F157
:1008180052C15AF1000E01015B6F5C6FC0EC0CF025
:1008280056EC40F001010DE3BFEC0BF0000E0101A6
:10083800386F396F3A6F3F0E3B6FD6EC14F0DAEC35
:100848000BF0A7C16FF10101706B6FBF7007ECEC83
:100858000BF0040E6F27000E70231CEC0CF0F76EE3
:10086800F9EC0BF05FEC0BF059EC3DF00900F5509A
:10087800010103EC0CF012E33DEC0CF0CD0E01018C
:100888000E6FCC0E0F6F106F3D0E116F1FEC17F02F
:100898007CEC0CF00101994B9A2B27D00101A75150
:1008A800040D5E0EF324F66EFA0EF420F76EF9ECE2
:1008B8000BF05FEC0BF059EC3DF00900F55001012D
:1008C80003EC0CF012E23DEC0CF0000E01010E6F8F
:1008D8000F6F200E106F410E116F1FEC17F07CEC9C
:1008E8000CF001019907D8A09A070101A9A355D0D6
:1008F8000101A9B752D00101A6BF0AD0A65103E150
:100908000B0EA55D05E3000E0101A66F0A0EA56F8B
:100918005FEC0BF059EC3DF07FEC0BF00ED00101D1
:10092800A507D8A0A60756EC0BF00A0E0001A0EC0C
:100938000CF069EC42F034EC0CF0010191EC0CF095
:100948000CE090EC0BF00A0E0001F3EC0BF0C1EC9C
:1009580044F00001AFEC0CF0E2E00101A651800A7E
:1009680001016F6F0101A7510101A55D800E010111
:10097800A7BF7F0E01016F5910E258EC0CF001017E
:10098800A5510101A75D56EC0FF06AEC0CF036ECAE
:100998001EF046EC0CF0A5C1A7F1050E0101A52536
:1009A80001016F6F000E0101A6210101706F6F51E7
:1009B80001019B5F0101705101019C5B0101A5517F
:1009C800A61103E10101A9A704D001019B07D8A042
:1009D8009C07B9EC0CF001016F1704E001019B07BB
:1009E800D8A09C070101A8A533D00101A8A312D063
:1009F8000101A8B105D0000E0101796F2B0E04D0BA
:100A0800000E0101796F2D0E786F45EC0BF078C15F
:100A1800DFFF07D00101A8A113D045EC0BF0200E91
:100A2800DF6E0101634B642B0BD045EC0BF0300EED
:100A3800DF6E0101634B642B01019B07D8A09C0763
:100A480001019CBF3AD09C51F0E19B0536E3EDD7FC
:100A58000101A8B713D00BD045EC0BF0200EDF6EC8
:100A68000101634B642B01019B07D8A09C0701017E
:100A78009CBF04D09C51F0E19B05EEE20101A8A3C4
:100A880012D00101A8B105D0000E01017B6F2B0E19
:100A980004D0000E01017B6F2D0E7A6F45EC0BF030
:100AA8007AC1DFFF07D00101A8A107D045EC0BF000
:100AB800200EDF6E0101634B642B5FEC0BF059ECE9
:100AC8003DF07FEC0BF056EC0BF0010138EC0BF02D
:100AD8004AEC0BF069EC42F000018051300F45EC14
:100AE8000BF0DF6E0101634B642B90EC0BF00101FE
:100AF80038EC0BF099EC0BF0C1EC44F0E3EC0BF0A4
:100B08000101A551A61103E10101A9A753D045ECA4
:100B18000BF02E0EDF6E0101634B642B0101A75110
:100B28000101A55F000E0101A7BFFF0E0101A65B31
:100B38002DD00101A9A30DD0010191EC0CF009E120
:100B48000101A76BA7510101A56FA66BA5BFA60759
:100B58002DD056EC0BF0010138EC0BF04AEC0BF001
:100B680069EC42F000018051300F45EC0BF0DF6E6C
:100B78000101634B642B90EC0BF0010138EC0BF096
:100B880099EC0BF0C1EC44F0E3EC0BF00101A70782
:100B9800A7290CE0CED745EC0BF0300EDF6E010133
:100BA800634B642B0101A507D8A0A6070101A55135
:100BB800A611F1E10101A8AB04D045EC0BF0450EFC
:100BC80003D045EC0BF0650EDF6E0101634B642B1F
:100BD80001019AAF09D00101996D9A1FD8B09A2BDB
:100BE80045EC0BF02D0E03D045EC0BF02B0EDF6E11
:100BF8000101634B642B9BEC0CF00001BCEC0CF086
:100C08002FEC3FF00001BC51300F45EC0BF0DF6ECC
:100C18000101634B642B99C180F09AC181F0000EE9
:100C28000001836F0A0E826FF1EC43F000018051DE
:100C3800300F45EC0BF0DF6E0101634B642B0101B3
:100C4800A8A726EF0BF001019CBF26EF0BF09C51E3
:100C580004E19B0502E226EF0BF045EC0BF0200EB9
:100C6800DF6E0101634B642B0101FDEC0BF002E127
:100C780026EF0BF0F2D70101A9A3A4D001019AAF86
:100C880011D0010E0101992501016F6F000E0101BC
:100C98009A210101706F6F510101A55F0101705127
:100CA8000101A65B5FEC0BF059EC3DF07FEC0BF01B
:100CB8000101A76B0AD0010138EC0BF0F5500101D6
:100CC80074EC0BF006E30101A72B0A0E0101A7192A
:100CD800F2E10101A7510101A55F000E0101A7BFC3
:100CE800FF0E0101A65BA6BF05D0A6510FE10D0EB0
:100CF800A55D0CE2BFEC0BF00101A551AAEC21F0B7
:100D08004FEC0CF0D6EC14F0DAEC0BF00101A55125
:100D180056EC0FF023C18AF124C18BF125C18CF167
:100D280026C18DF18AC10AF18BC10BF18CC10CF17E
:100D38008DC10DF113EC0CF06BEC2EF0D1EC0BF037
:100D4800B6EC0BF055EC4AF04FC10EF150C10FF163
:100D580051C110F152C111F11FEC17F00AC18AF10B
:100D68000BC18BF10CC18CF10DC18DF18AC145F11C
:100D78008BC146F18CC147F18DC148F159EC3DF06A
:100D88007FEC0BF00ED056EC0BF00A0E0001A0EC35
:100D98000CF069EC42F034EC0CF00101A507D8A086
:100DA800A6070101A551A61121E090EC0BF00A0E4F
:100DB8000001F3EC0BF0C1EC44F00001AFEC0CF0D7
:100DC80015E1E1D70101A6BF05D0A6510FE10D0E2F
:100DD800A55D0CE2BFEC0BF00101A551AAEC21F0D6
:100DE8004FEC0CF0D6EC14F0DAEC0BF001019ABFE2
:100DF80005D09A5119E10A0E995D16E2010196ECA7
:100E08000CF04FE05FEC0BF059EC3DF0010145515F
:100E180046114711481145E101019ABF42D09A5144
:100E280003E1020E995D3DE3C8EC0BF05F0E010192
:100E38005B6F700E5C6F890E5D6F400E5E6F56ECD7
:100E480040F0010103E20101F70E02D00101F80EA2
:100E58009927FF0E9A230101995156EC0FF061EC86
:100E68000CF09DC180F09EC181F09FC182F0A0C1AD
:100E780083F095C184F096C185F097C186F098C13A
:100E880087F027EC37F080C0A1F181C0A2F182C0C1
:100E9800A3F183C0A4F101019D6B9E6B9F6BA06BB6
:100EA8001BD05FEC0BF059EC3DF07FEC0BF0B6EC8F
:100EB8000BF013EC0CF06BEC2EF0D1EC0BF055ECC6
:100EC8004AF04FC19DF150C19EF151C19FF152C1ED
:100ED800A0F10101996B9A6B010E0101A76F08D06F
:100EE8000101C2DBF5500101FBDB06E30101A72B81
:100EF8000A0E0101A719F4E1A7C16FF10101706B96
:100F08006FBF70070101A55101016F270101A651AB
:100F1800010170230101995101016F2701019A51C3
:100F2800010170236F5101019B5F010170510101A3
:100F38009C5B0101A9B704D00101A551A61104E0E9
:100F480001019B07D8A09C07B9EC0CF001016F17B1
:100F580004E001019B07D8A09C070101A8A530D097
:100F68000101A8A311D00101A8B105D0000E01010B
:100F78007D6F2B0E04D0000E01017D6F2D0E7C6F4E
:100F880080DB7CC1DFFF06D00101A8A111D079DB8D
:100F9800200EDF6E0101634B642B0AD072DB300E2A
:100FA800DF6E0101634B642B01019B07D8A09C07EE
:100FB80001019CBF47D09C51F1E19B0543E3EED76B
:100FC8000101A8B712D00AD05CDB200EDF6E010148
:100FD800634B642B01019B07D8A09C0701019CBFB0
:100FE80004D09C51F1E19B05EFE20101A8A30FD0C9
:100FF8000101A8B104D001017F6B2B0E03D00101C0
:101008007F6B2D0E7E6F3DDB7EC1DFFF18D00101A7
:10101800A8A118D036DB200E11D044DB010124DB57
:1010280035DB69EC42F08DDB0001D9DBC1EC44F023
:1010380073EC0CF001019551300F23DBDF6E0101D9
:10104800634B642B0101A707A7290BE0E6D719DB3F
:10105800300EDF6E0101634B642B01019907D8A0A4
:101068009A0701019ABF04D09A51F1E19905EFE27C
:101078000101A6BF09D0A65103E1090EA55D04E34D
:10108800080E0101A76F02D0A5C1A7F10101A75160
:101098000101A55F000E0101A7BFFF0E0101A65BBC
:1010A8000101A75103E10101A9A706D0EADA2E0E32
:1010B800DF6E0101634B642B0101A75156EC0FF061
:1010C80023C173F124C174F125C175F126C176F1EC
:1010D800BEDB73C10AF174C10BF175C10CF176C1A5
:1010E8000DF11FEC17F00AC145F10BC146F10CC117
:1010F80047F10DC148F159EC3DF0FDDA1BD0D2DAC9
:101108000101B2DAC3DA69EC42F01BDB000167DBEC
:10111800C1EC44F0E4DB01019551300FB2DADF6E27
:101128000101634B642BF8DA01019EDAFEDAC1ECA7
:1011380044F045DB0101A707A7290BE0E0D7A1DAB6
:10114800300EDF6E0101634B642B0101A507D8A0A7
:10115800A6070101A551A611F2E10101A8A772D2C3
:1011680001019CBF6FD29C5103E19B0501E26AD249
:1011780088DA200EDF6E0101634B642B010139DB35
:1011880001E160D2F5D7A8C16FF1C00E01016F1758
:1011980024E10101A8A903D03DDB50DB0CD03ADBE8
:1011A800DECFA1F1DDCFA2F10101000EA2BFFF0E3B
:1011B800A36FA46F020E0101C5DB0101A4AF22D009
:1011C800030E0101A8130101A41FA31FA21FA16DF3
:1011D800000EA223A323A42315D00101A8A903D09C
:1011E80019DB2CDB0DD016DBDECF6FF1DDCF70F114
:1011F8006FC1A1F170C1A2F10101A36BA46B020E32
:101208000101A0DB0101A551A61147E1010185DB20
:1012180044E10101A54BA62B40D0010E0101A76FA7
:101228000A0E0101A71943E001011EDAF550010178
:1012380057DA3DE30101A72BF3D7010E0101A76F90
:10124800080E0101A71933E00101A751040D410E51
:10125800F324F66EB80EF4204FEC10F0F5500101AF
:101268003FDA25E30101A72BEBD7010E0101A76F98
:101278000C0E0101A7191BE00101A751040D110E65
:10128800F324F66EB80EF4204FEC10F0F55001017F
:1012980027DA0DE30101A72BEBD70101A851C00BF9
:1012A800BCE0400AE2E0C00AC8E0400AB6E0800EAE
:1012B8000101A7BF7F0E01016F6F0101A551010157
:1012C800A75D0101A651800A01016F5903E2A5C17A
:1012D800A7F117D00101A651800A01016F6F010122
:1012E800A7510101A55D800E0101A7BF7F0E010175
:1012F8006F5907E20101A7510101A56FA66BA5BFB0
:10130800A60701019B519C1108E02FDB01016F1713
:1013180004E001019B07D8A09C070101A9AD1AD0E0
:1013280001019B510101A55DA651800A01016F6F62
:1013380001019C51800A01016F5909E20101A5517F
:1013480001019B5F0101A65101019C5B03D00101D2
:101358009B6B9C6BC40E0101B7D9400E71190CE14F
:10136800080E721909E101019B519C111FE001014E
:101378009B07D8A09C071AD0C00E0101A5D9800EE2
:10138800711914E1080E721911E101019CBF0BD00B
:101398009C5103E1030E9B5D06E30101FE0E9B27B2
:1013A800FF0E9C2303D001019B6B9C6B800E0101F7
:1013B800A7BF7F0E01016F6F01019B510101A75D5E
:1013C80001019C51800A01016F590BE20101A751EB
:1013D80001019B5F000E0101A7BFFF0E01019C5B8D
:1013E80003D001019B6B9C6B0101A8A549D00101A9
:1013F800A8A30FD00101A8B104D00101816B2B0E65
:1014080003D00101816B2D0E806F3BD980C1DFFFB6
:1014180024D00101A8A104D034D9200EDF6E1DD03C
:10142800C00E010151D9800E71191AE1080E721906
:1014380017E127D9300EDF6E0101634B642B0101E0
:10144800A8BB04D00101836B780E03D00101836B24
:10145800580E826F16D982C1DFFF0101634B642BDE
:1014680001019B519C1101E1D2D00BD9300EDF6EE6
:101478000101634B642B01019B07D8A09C07F1D79E
:1014880001019B519C110CE00101A8B709D0F9D8C2
:10149800200EDF6E0101634B642B0101AAD9F7E12D
:1014A8000101A8A30FD00101A8B104D00101856BE7
:1014B8002B0E03D00101856B2D0E846FE2D884C1F9
:1014C800DFFF06D00101A8A106D0DBD8200EDF6E11
:1014D8000101634B642BC00E0101F6D8400E71194F
:1014E80007E1080E721904E1CCD8300EDF6E8CD0FB
:1014F800C00E0101E9D8800E711903E1080E7219B6
:10150800D8A485D0BED8300EDF6E0101634B642BA2
:101518000101A8BB04D00101876B780E03D001013B
:10152800876B580E866FADD886C1DFFF6DD0F0D9B6
:1015380001014ED97DD94FEC10F0A8D8B3D869EC89
:1015480042F080C08DF081C08EF082C08FF083C0E1
:1015580090F00A0E000143D9C1EC44F000018D510E
:1015680042D0A0D8D5D9010133D9410E6F25F66EE6
:10157800B80E70214FEC10F089D869EC42F00001E8
:1015880080510F0B0101776F0101A8BB05D0480EF0
:101598000101886FFB0E04D0370E0101886FFB0E26
:1015A800896F010177510101882501016F6F000ED4
:1015B800010189210101706FC9D9F86A0800F5CFC6
:1015C800A7F11FD06FD8A4D9010102D9110E6F2538
:1015D800F66EB80E70214FEC10F058D869EC42F056
:1015E80000018051070B300F0101A76F0AD00101DC
:1015F800A851C00B9CE0400AE5E0C00AB2E0400AEE
:1016080096E03FD8A7C1DFFF0101634B642B0101BE
:10161800A507D8A0A607A529EAE1A629E8E10101BE
:10162800A8A710D001019CBF0DD09C5102E19B05D9
:1016380009E327D8200EDF6E0101634B642B0101FB
:10164800D8D8F7E165C1F6FF66C1F7FF010159D99E
:101658000101A75102E04CEF01F013D8000EDF6A38
:101668000101636B646B1200A751040D5E0EF32435
:10167800F66EFA0EF420F76EF86A000EF8220900EA
:10168800120063C1D9FF64C1DAFF1200F5CF84F0FC
:101698000900F5CF85F00900F5CF86F00A00F5CFEF
:1016A80087F01200A1C180F0A2C181F0A3C182F02D
:1016B800A4C183F012009DC145F19EC146F19FC1AE
:1016C80047F1A0C148F112006F6F080E706FA8C1F2
:1016D80071F1A9C172F16F5171177051721712002F
:1016E800A15D0900F550A2590900F550A359090058
:1016F800F550A459120045C1A1F146C1A2F147C154
:10170800A3F148C1A4F1120065C1F6FF66C1F7FF55
:10171800F86A0800F5501200A1C18DF0A2C18EF040
:10172800A3C18FF0A4C190F01200F5CF91F0090089
:10173800F5CF92F00900F5CF93F00A00F5CF94F0B9
:10174800120080C095F181C096F182C097F183C0E4
:1017580098F195C18DF096C18EF097C18FF098C120
:1017680090F00A0C9DC14FF19EC150F19FC151F1FB
:10177800A0C152F112009DC134F19EC135F19FC143
:1017880036F1A0C137F1120095C157F196C158F151
:1017980097C159F198C15AF1120080C053F181C024
:1017A80054F182C055F183C056F1120034C19DF145
:1017B80035C19EF136C19FF137C1A0F112008DC02D
:1017C800A1F18EC0A2F18FC0A3F190C0A4F11200C4
:1017D800D8906F377037D8906F3770371200916F85
:1017E800000E926F936F946F000CF86A000EF82247
:1017F80012009B07D8A09C079B519C111200455DC5
:101808000900F55046590900F55047590900F550A7
:101818004859120093C1D9FF94C1DAFF1200A1C13F
:1018280080F0A2C181F0A3C182F0A4C183F0000CB2
:101838005E0E6F25F66EFA0E70211200DECFA1F152
:10184800DECFA2F1DECFA3F1DECFA4F1040C9DC15F
:101858000EF19EC10FF19FC110F1A0C111F112004C
:1018680080C0A1F181C0A2F182C0A3F183C0A4F11C
:1018780012009DC10AF19EC10BF19FC10CF1A0C1DC
:101888000DF112002CC19DF12DC19EF12EC19FF1C9
:101898002FC1A0F1120023C138F124C139F125C1AB
:1018A8003AF126C13BF112009DC12CF19EC12DF1E8
:1018B8009FC12EF1A0C12FF1120023C195F124C1BF
:1018C80096F125C197F126C198F1120023C130F194
:1018D80024C131F125C132F126C133F112008DC086
:1018E80095F18EC096F18FC097F190C098F11200D3
:1018F8000AC19DF10BC19EF10CC19FF10DC1A0F170
:101908001200654B662BF86A0800F5CFA7F11200A4
:10191800A5C16FF1A6C170F11200A151A211A311C6
:10192800A41112009D519E119F11A011120099C17E
:10193800BCF09AC1BDF0000C846F000E856F866FF5
:10194800876F000C9327000E9423000C6FC1F6FFDD
:1019580070C1F7FF12008D518E118F119011120076
:101968009B07D8A09C079B291200A8C16FF1030C04
:10197800BF6F0A0EBE6F0A0C5D6F3F0E5E6F3F0CA5
:10198800836F0A0E826F0A0C0001AD6BAE6B00010B
:10199800B56BB66BB76BB86B0001A569A669A7698B
:1019A8007F0EA86F62DA000EDF6E0001B06F010EC5
:1019B800AF6F0001B05101E10AD10DD16BDA00011E
:1019C80049DA00016CDA000129DA69EC42F00ADA36
:1019D8008DC084F08EC085F08FC086F090C087F0EF
:1019E80069EC42F0FF0E000180250001AD6FFF0E8B
:1019F800000181210001AE6F0001AE0501E3E0D0D6
:101A080049DA000127DA00014ADA000107DA69EC4D
:101A180042F0E8D9010E0001AD250001956F000ED6
:101A28000001AE210001966F2ADA0001866B876BF0
:101A380069EC42F006DA00018D510001B55D000144
:101A4800956F00018E510001B6590001966F000193
:101A58008F510001B7590001976F000190510001A3
:101A6800B8590001986F98BF19D000018D51000135
:101A7800B55D0001996F00018E510001B659000152
:101A88009A6F00018F510001B75900019B6F000147
:101A980090510001B85900019C6F20D000018D5170
:101AA8000001B5250001956F00018E510001B62196
:101AB8000001966F00018F510001B7210001976F57
:101AC800000190510001B82100019DD995C099F0FD
:101AD80096C09AF097C09BF098C09CF00001A55161
:101AE8000001995D0001A65100019A590001A75112
:101AF80000019B599C51800A0001956F0001A85173
:101B0800800A000195595CE2B0D9ADC0DFFF93C0EF
:101B1800D9FF94C0DAFFAFC0DFFF00018D5100018B
:101B2800B55D0001956F00018E510001B6590001A5
:101B3800966F00018F510001B7590001976F00019E
:101B480090510001B8590001986F98BF19D0000151
:101B58008D510001B55D0001A56F00018E51000196
:101B6800B6590001A66F00018F510001B759000155
:101B7800A76F000190510001B8590001A86F20D04B
:101B880000018D510001B5250001956F00018E51AE
:101B98000001B6210001966F00018F510001B721A5
:101BA8000001976F000190510001B82100012BD965
:101BB80095C0A5F096C0A6F097C0A7F098C0A8F069
:101BC8000001D890AF37B0370001B05104E1810E61
:101BD800AF5D01E2F3D62AD90001000E4BD9000E01
:101BE80000011CD969EC42F0FDD83FD9DF50000153
:101BF8004BD945D900013ED969EC42F022D916D912
:101C08000001000E37D9000E000108D969EC42F036
:101C1800E9D82BD9DF500001956F966B020E9527F6
:101C2800000E96232CD9000125D969EC42F080C01A
:101C3800A9F081C0AAF082C0ABF083C0ACF000016B
:101C48008D510001B55D0001956F00018E510001B5
:101C5800B6590001966F00018F510001B759000174
:101C6800976F000190510001B8590001986F98BF13
:101C780019D000018D510001B55D00019D6F000173
:101C88008E510001B65900019E6F00018F5100016D
:101C9800B75900019F6F000190510001B859000128
:101CA800A06F20D000018D510001B5250001956F6E
:101CB80000018E510001B6210001966F00018F517D
:101CC8000001B7210001976F000190510001B82170
:101CD800000199D895C09DF096C09EF097C09FF0DE
:101CE80098C0A0F000018D510001A95D0001956F19
:101CF80000018E510001AA590001966F00018F5111
:101D08000001AB590001976F000190510001AC59D7
:101D18000001986F98BF19D000018D510001A95D8D
:101D28000001A16F00018E510001AA590001A26FA4
:101D380000018F510001AB590001A36F00019051C0
:101D48000001AC590001A46F20D000018D510001A1
:101D5800A9250001956F00018E510001AA210001FB
:101D6800966F00018F510001AB210001976F0001B0
:101D780090510001AC21000146D895C0A1F096C051
:101D8800A2F097C0A3F098C0A4F000019D510001F3
:101D9800A15D00019E510001A25900019F5100015F
:101DA800A359A451800A0001956F0001A051800A2F
:101DB8000001955902E259D8DF2A38D80001000EEF
:101DC80059D8000E00012AD869EC42F00BD84DD83A
:101DD800DF50000159D853D800014CD869EC42F0C3
:101DE80030D8000C80C0B1F081C0B2F082C0B3F02E
:101DF80083C0B4F0B1C080F0B2C081F0B3C082F04B
:101E0800B4C083F01200986F951F961F971F981FF4
:101E1800952B000E962397239823000C806F900E25
:101E2800816FD00E826F030E836F030C93C0D9FFAE
:101E380094C0DAFFDF50040DF3CF84F0F4CF85F0BF
:101E4800120080C0B5F081C0B6F082C0B7F083C080
:101E5800B8F01200D89095379637D89095379637BE
:101E680095C084F096C085F0120091C0D9FF92C049
:101E7800DAFF120085BFFF0E866F876F120095C0CC
:101E880084F096C085F01200956F966B952B000E26
:101E98009623000CAFC095F0B0C096F01200866B88
:101EA800876B000C01012B6F01012BAF71D0010171
:101EB8002B6D2B51800A120F3DE300015ED9000102
:101EC80069D901012B510001806F816B80BF8107A7
:101ED800F1EC43F056D92FEC3FF00001F9D826D9A0
:101EE800F76EF86AC9D8000151D901012B510001D8
:101EF800BC6FBD6BBCBFBD072FEC3FF00001D89095
:101F0800FBD814D9C8D8CDD81FEC17F015D90001C3
:101F180030D901012B510001806F816B80BF81078F
:101F2800F1EC43F00001CDD8F6D8C7D8A5D81FECFE
:101F380017F0D9D001012B51800A750F23E3000156
:101F48001CD901012B510001BC6FBD6BBCBFBD0783
:101F58002FEC3FF00001BCD8E9D89DD8A2D80001E9
:101F680008D901012B510001806F816B80BF810767
:101F7800F1EC43F00001A5D8CED89FD87DD81FEC4E
:101F880017F0B1D001012B515AEC22F084D8E5D0DA
:101F980001012B51800A120F3DE30001EED8000128
:101FA800F9D801012B510001806F816B80BF810737
:101FB800F1EC43F0E6D82FEC3FF0000189D8B0D817
:101FC800F76EF86A59D80001E1D801012B510001D8
:101FD800BC6FBD6BBCBFBD072FEC3FF00001D890B4
:101FE8008BD89ED858D85DD81FEC17F0A5D800011B
:101FF800C0D801012B510001806F816B80BF810720
:10200800F1EC43F000015DD881D857D835D81FECE2
:1020180017F069D001012B51800A750F23E30001E5
:10202800ACD801012B510001BC6FBD6BBCBFBD0713
:102038002FEC3FF000014CD873D82DD832D80001CE
:1020480098D801012B510001806F816B80BF8107F7
:10205800F1EC43F0000135D859D82FD80DD81FEC32
:1020680017F041D001012B51040DA90EF324F66E8F
:10207800B70EF42010D871D0000EF8220900F5CF61
:102088000EF10900F5CF0FF10900F5CF10F10A00A4
:10209800F5CF11F11200F76EF86A000EF822090068
:1020A8001200F5CF0AF10900F5CF0BF10900F5CFC1
:1020B8000CF10A00F5CF0DF112008121F76EF86AD4
:1020C8001200D89080378137D89080378137120036
:1020D800D890BC37BD37D890BC37BD37240EBC2745
:1020E800000EBD23000C0AC123F10BC124F10CC161
:1020F80025F10DC126F11200BC37BD37D890BC3789
:10210800BD37480EBC27000EBD23000CA90E802544
:10211800F66EB70E1200DD0E8025F66EB70E1200B1
:10212800A90EBC25F66EB70EBD211200DD0EBC252A
:10213800F66EB70EBD2112000AC127F10BC128F1B6
:102148000CC129F10DC12AF127C10AF128C10BF1EF
:1021580029C10CF12AC10DF11200F5CF23F10900B4
:10216800F5CF24F10900F5CF25F10A00F5CF26F1C6
:102178001200836B0A0E826F0A0CBF6B0A0EBE6FC9
:102188000A0C80C0BCF081C0BDF01200BF6B640EA9
:10219800BE6F640C836B640E826F640C0101F26F76
:1021A800200E0101F36F100E0101F16F0201EE51D3
:1021B80002E0FDEC4EF08FEC4EF00101F46BDFD045
:1021C800DD0E0101636F010E646FA80E0101656FDA
:1021D800FD0E666F010148D9010141D9CD290101E0
:1021E800676F000E0101CE210101686F0101F451F2
:1021F800F2C1CFF10101D06BCF27000ED023D890C8
:10220800CF37D037D890CF37D0372D0ECF25D96ECE
:10221800030ED021DA6E1AD95BEC44F008D900011C
:1022280020EC19F0A2EC38F0A6C0D4F1A5C0D3F187
:10223800A4C0D2F10101D16BD1C169F1D2C16AF157
:10224800D3C16BF1D4C16CF145EC01F0DD0E010195
:102258000A6F010EE6D8050E0101F0D80101F40558
:10226800010ED8B4000E010B0101116F94EC4DF072
:102278000101F1510101F327020E0101F46179D046
:10228800DD0E0101636F010E646F870E0101656F3A
:10229800FF0E666F0101E8D80101E1D8D890CD376B
:1022A800CE37D890CD37CE372D0ECD25D96E030E2B
:1022B800CE21DA6EDECFCFF1DECFD0F1DECFD1F195
:1022C800DECFD2F10101F451F2C1D3F10101D46B97
:1022D800D327000ED423D890D337D437D890D33708
:1022E800D437310ED325D96E030ED421DA6EDECF62
:1022F800D5F1DECFD6F1DECFD7F1DECFD8F1CF5191
:10230800D55D00019A6F0101D051D65900019B6F2C
:102318000101D151D75900019C6F0101D251D859FF
:1023280000019D6F5BEC44F082D8000120EC19F0AD
:10233800A2EC38F0A6C0DCF1A5C0DBF1A4C0DAF14C
:102348000101D96BD9C167F1DAC168F1DBC169F163
:10235800DCC16AF145EC01F0DD0E01010A6F010EE6
:1023680060D88C0E01016AD8010E0101116F94EC3E
:102378004DF00101F1510101F3270101F42B020E87
:102388000101F4651DD70201EE510DE00201EE6B6B
:10239800F3C192F0F00E0001936FA00E0001946F4C
:1023A800000E83EC4EF0DD0E0101636F010E646FC9
:1023B800000E0101656FFB0E666FCCC167F101016C
:1023C800686B24EEBEF0DF50696F6A6BD9EC2DF0B4
:1023D8003EEC23F03BD85BEC44F029D8000120EC1C
:1023E80019F0A2EC38F0A6C0D0F1A5C0CFF1A4C076
:1023F800CEF10101CD6BCDC16BF1CEC16CF1CFC176
:102408006DF1D0C16EF145EC01F0DD0E01010A6FEE
:10241800010E07D80C0E010111D80101116B94EFC0
:102428004DF00B6F0A11D8A4200E0C6F12009AC041
:10243800A4F09BC0A5F09CC0A6F0000C0D6FF3C1E2
:102448000EF1D4C00FF1D5C010F11200DECF9AF012
:10245800DECF9BF0DECF9CF0DECF9DF01200CE6B7E
:10246800CD27000ECE23000CF451F2C1CDF112009D
:10247800020E00018A2500018D6F000E00018B21DC
:10248800000128D94AD98F510001865D0001905179
:1024980000018759D8A0000C030E00018A2500010D
:1024A8008D6F000E00018B21000114D936D900016F
:1024B800865100018F5D000187510001905901E2AA
:1024C800000C89C08DF0070E00018D1701E0000C8B
:1024D800020E00018A2500018D6F000E00018B217C
:1024E8000001F8D80800F5500001865F000E875BF0
:1024F800F8D8070E00018D170CE0F3D80001D8902A
:102508008D3310D98D2900019A6F9B6B000E9B2388
:1025180008D0E7D8000106D9D8908D3100019A6F0C
:102528009B6B9AC09DF0F4D8000101D925EC4DF0C1
:10253800040E00018A2500018D6F000E00018B2119
:102548000001C8D8DED80001805100018F270001A2
:102558008151000190238F2B000ECCD80900F5CFB4
:1025680091F00900F5CF92F0060E00018A250001CE
:10257800936F000E00018B210001946F93C0F6FF4A
:1025880094C0F7FFF86A91510900F5240001986F8B
:10259800000192510900F5200001996F0001CBD884
:1025A8000001966F0001C7D800019D250001976FB3
:1025B80088C09EF046D096C082F09EC083F097C037
:1025C80084F000019E5173EC4AF09DC09FF02AD020
:1025D80000018D698E699FC08FF0906B8FBF900747
:1025E80098C091F099C092F08F5191279051922301
:1025F8008D5191278E51922391C0F6FF92C0F7FF1B
:10260800F86A0800F5CF9CF000018C0505E100018F
:102618009C51E6EC4EF004D000019C1DE6EC4EF017
:1026280000019F0700019F51800A7F0FD1E200013E
:102638009D51010DF35000019827F4509923000192
:102648009E2B66D8000173D825EC4DF0040E0001CE
:102658008A2500018D6F000E00018B2100013AD8F8
:1026680050D80001805100018F27000181510001DD
:1026780041D80800F55088C091F0926B9127000E60
:10268800922300019E510001936F946B9151935DC9
:102698009451800A956F9251800A95598CE338D8E5
:1026A800000145D825EC4DF0040E00018A250001F3
:1026B8008D6F000E00018B2100010CD822D800017B
:1026C800805100018F2700018151000113D80800B3
:1026D800F55012008E6F8DC0F6FF8EC0F7FFF86AB6
:1026E80012008AC0F6FF8BC0F7FFF86A0800F5CF22
:1026F8008DF0120090238FC0F6FF90C0F7FFF86AA4
:1027080012000900F5CF8FF00900F5CF90F0120004
:1027180086C080F087C081F0000C0800F5508F6FEC
:10272800906B1200D8908D33D8908D331200836F40
:10273800030E826F030C8939E8461F0B1200F4EC74
:102748002EF0C0D00101DED8FFD820EE1EF0E1D86F
:1027580002D934EC46F000010BE20101D3D8EBD8E2
:10276800D8D812D928EC29F00101CCD806D9C7D07D
:10277800030E0101F7D80101D1D85AEC1BF0BFD0E4
:102788000101CE6B040E0101CE6501D0B8D0010164
:10279800B9D8DAD820EE1EF0BCD8DDD834EC46F033
:1027A80000010BE20101AED8C6D8B3D8EDD828ECA9
:1027B80029F00101A7D8E1D807D0030E0101D2D82A
:1027C8000101ACD85AEC1BF00101CE2BDBD701017B
:1027D80020EE1BF09ED8B8D895D8BDD834EC46F07A
:1027E80000010BE201018ED89DD893D8BFD81FEC09
:1027F8004BF0010187D8CFD882D0030E0101B2D89F
:1028080001018CD85AEC1BF07AD00101CF6B040E71
:102818000101CF6501D073D0010120EE1BF079D8FA
:1028280093D870D898D834EC46F000010BE2010137
:1028380069D878D86ED89AD81FEC4BF0010162D8C5
:10284800AAD807D0030E01018DD8010167D85AEC28
:102858001BF00101CF2BDBD7010120EE2AF059D85C
:10286800DF8020EE2AF055D8DF8449D0010120EE20
:102878002AF04FD8DF9420EE2AF04BD8DF800101F0
:1028880020EE24F046D810EE21F0CC51E126CD51AF
:10289800D6EC24F034D00001DB6BF9EC4DF02FD0EE
:1028A800020E0001DB6FFDEC4EF0E9EC4CF027D096
:1028B800050E0001DB6F23D0010E0001DB6FC6ECB3
:1028C80036F01DD00001CF51010AEAE0030AE3E027
:1028D800010AEEE0050A01E135D7010A01E150D706
:1028E8000F0A01E174D7010A90E0030ABFE0010A68
:1028F800BDE0070AB1E0010AAFE0030ADDE000012C
:10290800CF6B120020EE21F0CC51D926CD51DA221E
:102918001200CC51D926CD51DA221200526B320E58
:10292800516F010CDECF94F0DECF95F0DDCF96F03D
:1029380020EE27F01200DECF88F0DECF89F0DDCF61
:102948008AF020EE27F01200DECF80F0DECF81F093
:10295800DDCF82F01200DECF83F0DECF84F0DDCF52
:1029680085F01200506FE80E4F6FE80CDECF97F03D
:10297800DECF98F0DDCF99F0120088C0DEFF89C065
:10298800DEFF8AC0DEFF1200DECF8BF0DECF8CF0D8
:10299800DDCF8DF0120094C0DEFF95C0DEFF96C03B
:1029A800DEFF120001013751800B406F3751372588
:1029B800426F36BF4281425105E0422901E10DD9FB
:1029C800368F03D0346B356B366B376B3B51800BCE
:1029D800416F401901E0408D3B513B25416F3ABFA3
:1029E8004181415108E0412904E1386B396B3A6B68
:1029F8003B6B3A8F03D0386B396B3A6B3B6B425168
:102A0800415D22E240AD02D0800E401B42C143F13D
:102A180041C142F143C141F134C143F138C134F1FC
:102A280043C138F135C143F139C135F143C139F1F9
:102A380036C143F13AC136F143C13AF137C143F1E6
:102A48003BC137F143C13BF1436B425141C13CF1BA
:102A58003D6B3C5F000E3D5B3DBF18D03D5103E12F
:102A68001A0E3C5D13E3C9D8010ED8B4000E436FAB
:102A7800B4D841C142F10DD043A105D0D89043311B
:102A88000109436F02D0D89043339ED84151425D2B
:102A9800F3E340BD19D0425101E1AAD0385134279F
:102AA800395135233A5136233B51372337A157D073
:102AB80043A106D0D890433343510109436F02D054
:102AC800D890433381D84BD03851345D395135597A
:102AD8003A5136593751800A3C6F3B51800A3C596C
:102AE8001FE23451385D3C6F355139593D6F3651CD
:102AF8003A593E6F37513B593F6FFF0E3C25346FB3
:102B0800FF0E3D21356FFF0E3E21366FFF0E3F2130
:102B1800376F800E401B436D43510AE163D808D0DC
:102B28003851345F3951355B3A51365B3B51375B2D
:102B380064D813E1435111E15BD0D890343735376D
:102B48003637373743BF348143A102D0D88001D00C
:102B5800D8904337425101E0420736AFEED7416B78
:102B680043AF0AD043C13CF17F0E3C1701E002D0CD
:102B780034A102D0010E416F41510BE033D837A187
:102B880008D037353733363335333433422901E00B
:102B9800422B422902E0425104E11FD8425101E18F
:102BA800406B42A102D0368F01D0369FD890423177
:102BB800376F40BF378F34C134F135C135F136C175
:102BC80036F137C137F1120034B1438F3735373317
:102BD800363335333433422B1200346B356B366B56
:102BE800376B1200342B000E352336233723000CA5
:102BF800346B356B366B376B120034513511361127
:102C080037111200000121EE77F08751D92688513B
:102C1800DA220F0EDF6E780E000187250001806F23
:102C2800010E000188210001816FE70E0001826F0B
:102C3800FB0EFBD836EC49F087C080F088C081F0E5
:102C4800CA0E0001826FFE0EF0D836EC49F0190E5C
:102C5800000187250001806F000E00018821000116
:102C6800816F7F0E0001826FFF0EDFD836EC49F0CE
:102C7800320E000187250001806F000E00018821B7
:102C88000001816F4E0E0001826FFE0ECED836EC29
:102C980049F04B0E000187250001806F000E0001EE
:102CA80088210001816FB00E0001826FFC0EBDD833
:102CB80036EC49F0640E000187250001806F000E94
:102CC800000188210001816F830E0001826FFC0ED4
:102CD800ACD836EC49F07D0E000187250001806FE5
:102CE800000E000188210001816FAC0E0001826F87
:102CF800FE0E9BD836EC49F0960E000187250001A0
:102D0800806F000E000188210001816FDC0E000138
:102D1800826FFC0E8AD836EC49F0AF0E0001872589
:102D28000001806F000E000188210001816F440EB0
:102D38000001826FFF0E79D836EC49F0C80E000109
:102D480087250001806F000E000188210001816F36
:102D5800F80E0001826FFC0E68D836EC49F0E10EDF
:102D6800000187250001806F000E00018821000105
:102D7800816FF20E0001826FFB0E57D836EC49F0D6
:102D8800FA0E000187250001806F000E00018821DE
:102D98000001816FD80E0001826FFD0E46D836EC17
:102DA80049F0130E000187250001806F010E000114
:102DB80088210001816F640E0001826FFE0E35D8F4
:102DC80036EC49F02C0E000187250001806F010EBA
:102DD800000188210001816F920E0001826FFC0EB4
:102DE80024D836EC49F0450E000187250001806F94
:102DF800010E000188210001816FEC0E0001826F35
:102E0800FA0E13D836EC49F05E0E00018725000152
:102E1800806F010E000188210001816FD00E000132
:102E2800826FFB0E02D836EF49F0836F8211D8A467
:102E3800000E846F120001010D51800B166F0D51A9
:102E48000D25186F0CBF1881185105E0182901E1EC
:102E580002D90C8F01D0FFD81151800B161B1151CC
:102E68001125176F10BF1781175105E0172901E1C8
:102E7800E8D8108F01D0E5D8175102E0185105E1C4
:102E88000A6B0B6B0C6B0D6B120010510A03B1D857
:102E9800196F1A6B1B6B1C6B22511D6F1E6B1F6BFE
:102EA800206B0F510B03A5D8B2D80E510C03A1D833
:102EB800AED8A5D80E510B039CD8B5D80F510A032C
:102EC80098D8B1D89CD80E510A0393D8ACD81051D1
:102ED8000B038FD8AFD80F510C038BD8ABD8105138
:102EE8000C0387D8126F2251136F146B156B14C122
:102EF80015F113C114F112C113F1126B12511D27F0
:102F080013511E2314511F23155120231C511D2713
:102F18009DD875D8175118C112F1136B1227000EDE
:102F28001323820E1225216FFF0E1321226F0FD05B
:102F3800D8901D371E371F3720371CBF1D81D890EA
:102F480019371A371B371C372107D8A022071FAF9C
:102F5800EFD7176B1CAF13D01951126F1A51136F9B
:102F68001B51146F7F0E1C15156F1251131114117C
:102F7800151101E002D01DA102D0010E176F1751E3
:102F88000BE01D2B63D820A107D0203520331F3339
:102F98001E331D33214B222B22BF0AD0225102E1BE
:102FA800212906E31D6B1E6B800E1F6F7F0E15D047
:102FB80022BF04D0225108E1210506E21D6B1E6BD9
:102FC8001F6B206B166B0AD021C118F17F0E1F17DB
:102FD800206B18B11F8FD8901831206F165120130D
:102FE8001DC10AF11EC10BF11FC10CF120C10DF169
:102FF8001200F3CF21F1F4CF22F1215112001BC1AD
:103008001CF11AC11BF119C11AF1196B1200192709
:10301800000E1A231B231C2322511D27000E1E23DA
:103028001F232023000C192722511A23000E1B23CB
:103038001C23000C1D2722511E23000E1F232023B2
:10304800000C0E6B0F6B106B116B1200000E1E2321
:103058001F232023000C0A6B0B6B0C6B0D6B1200EB
:10306800700E0001926FF00E0001936FA00E000128
:10307800946F000E83EC4EF0AE0E0101636F010EEB
:10308800646F200E0101656FFE0E666F2DC39AF006
:103098002EC39BF02FC39CF030C39DF05BEC44F033
:1030A8001BEC12F00001C8D8A2EC38F0CBD8010113
:1030B800D0D845EC01F0AE0E0101DED80101146B49
:1030C8000101156B18EC4AF0AE0E0101636F010E99
:1030D800646F140E0101656FFE0E666FDDEC2DF056
:1030E8000101676F686B45EC01F0AE0E0101C0D8B5
:1030F8000101146F0101156B18EC4AF047D0AE0EB0
:103108000101636F010E646F200E0101656FFD0EF2
:10311800666F45EC01F043D0AE0E0101636F010EFE
:10312800646F2D0E0101656FFD0E666F45EC01F0B1
:1031380036D0AE0E0101636F010E646F080E0101F7
:10314800656FFE0E666F45EC01F029D0AE0E0101E9
:10315800636F010E646FBF0E0101656FFC0E666F31
:10316800DCC09AF0DDC09BF0DEC09CF0DFC09DF0B3
:103178005BEC44F01BEC12F000015ED8A2EC38F0D6
:1031880061D8010166D845EC01F009D00001D95198
:10319800B6E0010AC1E0030ACCE0010AD7E0AE0EAE
:1031A80001016AD80101146B010E0101156F18ECB9
:1031B8004AF00001C7512BE0AE0E0101636F010E0A
:1031C800646F130E0101656FFD0E666F010E00013D
:1031D800C625010148D80001C651A8EC20F075ECBD
:1031E80028F0FDEC4CF06EEC28F0000125D8A2EC9C
:1031F80038F028D80101AA6BAAC169F1ABC16AF1FC
:10320800ACC16BF1ADC16CF145EC01F00CD0AE0E68
:103218000101636F010E646FE80E0101656FFE0E18
:10322800666F45EC01F0AE0E010122D80101146F62
:103238000101156F18EF4AF0A76F7A0EA86F440EB8
:10324800A96F440CA6C0ADF1A5C0ACF1A4C0ABF108
:103258001200AA6BAAC167F1ABC168F1ACC169F1F0
:10326800ADC16AF11200676F686B000E6823000C2D
:10327800126F010E136F010C126F010E136F120003
:10328800010121EE93F002D9DF9021EE91F0FED8F2
:10329800DF6A21EE92F0FAD8DF6A21EE93F0F6D8D1
:1032A800DF9421EE77F0F2D8080EDF6E780E010178
:1032B800DA250001806F010E0101DB210001816F19
:1032C8006F0E0001826FFE0E19EC17F036EC49F014
:1032D800DAC180F0DBC181F0B60E0001826FFE0E0C
:1032E80019EC17F036EC49F0190E0101DA25000146
:1032F800806F000E0101DB210001816FB40E000117
:10330800826FFD0E19EC17F036EC49F0320E010110
:10331800DA250001806F000E0101DB210001816FB9
:103328009C0E0001826FFD0E19EC17F036EC49F087
:103338004B0E0101DA250001806F000E0101DB212F
:103348000001816F460E0001826FFC0E19EC17F028
:1033580036EC49F0640E0101DA250001806F000E99
:103368000101DB210001816F600E0001826FFD0EFB
:1033780019EC17F036EC49F07D0E0101DA25000151
:10338800806F000E0101DB210001816F6C0E0001CE
:10339800826FFD0E19EC17F036EC49F0960E01011C
:1033A800DA250001806F000E0101DB210001816F29
:1033B800780E0001826FFD0E19EC17F036EC49F01B
:1033C800AF0E0101DA250001806F000E0101DB213B
:1033D8000001816F840E0001826FFD0E19EC17F059
:1033E80036EC49F0DAC1CCF1DBC1CDF1F4EC4BF0AD
:1033F800010121EE91F04AD862C2DFFFDAC1CCF1B7
:10340800DBC1CDF161EC1CF0DAC1CCF1DBC1CDF14F
:10341800BAEC3AF0010121EE93F038D8DFB004D0CD
:10342800060E0001DB19EAE0010121EE93F02ED827
:10343800DFA41200010121EE91F028D8DF5002012B
:10344800626F010121EE91F021D8DF5002E18BEF8C
:1034580046F0010A02E1AEEF41F0030A02E152EF41
:1034680045F0010A02E108EF46F0070A02E1DAEF47
:1034780049F0010A02E103EF4BF0030A02E1C1EF50
:103488004CF0010A02E1A8EF4BF01200DA51D926FC
:10349800DB51DA2212000101D46F0101EA6B780EC8
:1034A8000101D0250001806F010E0101D121000129
:1034B800816F2C0E0001826FFC0E19EC17F036ECB0
:1034C80049F0D0C1CCF1D1C1CDF1F4EC4BF0010100
:1034D800E96FDED00101D4510A0DF3CFF1F1F4CF39
:1034E800F2F10101F06B0101EB6B82D00101EA51AD
:1034F8000101F119F21151E0D50E0101636F010EBE
:10350800646FDE0E0101656FFE0E666FF1C186F015
:10351800F2C187F0000E0001896F3C0E886FCCEC79
:1035280047F086C067F187C068F1F1C180F0F2C149
:1035380081F0000E0001836F3C0E826FBAEC49F0F7
:1035480080C069F181C06AF145EC01F0D50E010136
:103558000A6F010E15EC12F00A0E01010D6F010140
:10356800E9511E0F010135EC32F00101116F94ECA5
:103578004DF0F1C1EAF111D0010E0101F06F1DD03B
:103588000101F06B1AD00101F06B03D0010E0101AB
:10359800F06F0101F16BF26B10D08A503F0B010103
:1035A800D26FD36BD35109E1D251010AE9E0030A82
:1035B800E3E0060AE8E0240AE9E00101F0510AE044
:1035C800620E0101EB6506D00101EB6B0101F10709
:1035D800D8A0F207D00E0101D26FC90EE82EFED78F
:1035E800D22FFCD700D00101F05102E00101EB2BF2
:1035F8000101F151F21101E079D70101F05148E0E0
:103608000101EC6B41D00101ED6B20D047D80101DD
:1036180092EC14F05AEC1BF00101EE6B630E010101
:1036280011D041D80101D21701E03F0C150E01015C
:10363800D26FC60EE82EFED7D22FFCD700F00101BC
:10364800EE2B630EEE65EDD70101ED2B020E0101A5
:10365800ED65DCD70101EF6BC70E010111D023D84E
:103668000101D21701E03F0C2A0E0101D26F8D0E25
:10367800E82EFED7D22FFCD700D00101EF2BC70EC2
:10368800EF65EDD70101EC2B040E0101EC65BBD70A
:103698008A503F0B040A01E01DD71200D0C04FF139
:1036A800D1C050F112008ACFD2F13F0C01015F6FF7
:1036B8004FC153F150C154F1D890010153375437D9
:1036C80053C184F054C185F00001866B876B400EAE
:1036D8000001806F420E816F0F0E826F000E836FA4
:1036E80069EC42F080C08DF081C08EF082C08FF00E
:1036F80083C090F07EEC47F08DC062F18EC063F11C
:103708008FC064F10101306B316B640E326F420E71
:10371800336F64C156F163C155F162C154F10101BF
:10372800536B53C12CF154C12DF155C12EF156C123
:103738002FF136EC1EF02CC145F12DC146F12EC1FA
:1037480047F12FC148F159EC3DF045C157F146C149
:1037580058F147C159F148C15AF162C1A7F063C194
:10376800A8F064C1A9F051C18EF052C18FF00001D8
:10377800000E8FBFFF0E906F916F440E0001926F85
:10378800020E936F96D857EC47F08EC09AF08FC010
:103798009BF090C09CF091C09DF05BEC44F09AC007
:1037A800A4F09BC0A5F09CC0A6F0A2EC38F0A4C081
:1037B800B3F0A5C0B4F0A6C0B5F08DEC33F0B3C03B
:1037C8005BF1B4C05CF1B5C05DF1B6C05EF108EC68
:1037D8004EF05FD00101656B58D0B60E010165252A
:1037E800D96EDA6A020EDA22DF500001806F816B2F
:1037F8005FC182F00001836B25EC4DF0000181353B
:103808008133803381358133803380C0C2F081C0F9
:10381800C3F00001C3BF09D0C35103E1200EC25D4C
:1038280004E30001C36B1F0EC26F0001C3AF03D0D6
:103838000001C26BC36BC2C0C7FE0101606B616B44
:1038480007D0050EE82EFED700F00101604B612B72
:10385800010160510101536F010161510101546F70
:10386800556B566B010157510101535D01015851C8
:1038780001015459010159510101555901015A5188
:1038880001015659DEE30101652B1F0E0101656533
:10389800A4D7FF0E01015B075C235D235E235B2930
:1038A80099E15C2997E15D2995E15E2993E1F9EFBA
:1038B8004EF0000E946F956F000C690E0001E4D86D
:1038C8000101CC250101CE6F010E0101CD210101BD
:1038D800CF6FCEC182F0CFC183F000011EEC41F062
:1038E80036EC49F08FEC4EF0200E0101D76FCCEC8E
:1038F80031F0F5CFD2F10101B0D8DFA205D0FDEC4F
:103908004EF00101AAD8DF92010121EE92F095D87C
:10391800050DF3CFD8F1F4CFD9F14AD0010121EE4A
:1039280091F08BD80101D819D9111FE1A8D800014D
:10393800AFD825EC4DF0000180510101CC250101E3
:10394800D56F000181510101CD21010192D80101FA
:103958007AD8030E01017DD8D6C00FF1D7C010F177
:103968000101116B94EC4DF01CD089D8000190D85E
:1039780025EC4DF0000180510101CC250101D56FE6
:10398800000181510101CD21010173D801015BD8EA
:10399800030E01015ED8C7EC31F00101116F94EC00
:1039A8004DF00101D2510101D7270101D84BD92B84
:1039B800010121EE92F041D80101CE6FCE2900011C
:1039C80053D8000169D825EC4DF0010121EE77F0BC
:1039D80034D80101CF6FD06B000180510101CF5D58
:1039E800D051800AD16F00018151800A0101D1595B
:1039F80012E3010121EE92F020D80101CE6FCE2909
:103A0800000132D8000148D825EC4DF080C0D3F130
:103A180081C0D4F107D0010121EE77F00ED8010161
:103A2800D36FD46B0101D3510101D85D0101D45189
:103A38000101D95901E272D71200CC51D926CD51D2
:103A4800DA22DF5012000A510B11D8A4200E0C6F95
:103A580012000D6FD7C10EF1120021EE93F0CC5178
:103A6800D926CD51DA221200806F816B000E812396
:103A7800000CD66FD5C10AF1D6C10BF11200D8C11E
:103A880080F0D9C181F0000C806F020E816F780C34
:103A9800836F190E826F190C836F050E826F050CE8
:103AA800F4EC2EF09CD00101B9D8DF2AB7D8DF504A
:103AB800800A440F01E2AFD00101B0D8BBD80001A1
:103AC800C8D80001CBD8F1EC43F013D00101A6D837
:103AD800050EDF26A3D8DF50800A440F01E29BD0F1
:103AE80001019CD8A7D80001B4D80001B7D8F1ECDF
:103AF80043F000018051DF6E010120EE19F095D8E6
:103B0800DF50800A690F06E2010120EE19F08DD816
:103B1800DF2A81D0010120EE19F087D8000EDF6A74
:103B28007AD001017BD8DF0604D0010177D8FB0EDB
:103B3800DF2674D8000EDBAE6ED001016FD87AD8BC
:103B48000101CE6FCE513C08DF6E010120EE19F065
:103B58006CD8DF50800A7F0F06E3010120EE19F0D0
:103B680064D8DF0658D0010120EE19F05ED8170E90
:103B7800DF6E51D0010120EE1CF057D810EE1AF07C
:103B880061D820EE1BF051D810EE19F05BD8010176
:103B980020EE1DF04AD8DF94010105D0010120EE86
:103BA8001DF043D8DF8420EE1DF03FD8DF8033D0EE
:103BB8000001DB6BF9EC4DF02ED0020E0001DB6F3B
:103BC800FDEC4EF0E9EC4CF026D0050E0001DB6F61
:103BD80022D0010E0001DB6FC6EC36F01CD00001CC
:103BE800CF51010AEAE0030AE3E0010AEEE0050A20
:103BF80001E159D7010A01E169D70F0A92E0010AE8
:103C080094E0030AB7E0010AB5E0070AC7E0010A31
:103C1800C5E0030ADEE00001CF6B120020EE1AF0C7
:103C2800CC51D926CD51DA221200CC51D926CD510A
:103C3800DA22120010EE1AF0CC51E126CD51E22220
:103C4800E7501200CC51E126CD51E222DFCFE7FF49
:103C58001200806F816B80BF8107000C836F3B0E61
:103C6800826F3B0C01012F51800B386F2F512F258C
:103C7800436F2EBF4381435105E0432901E1CFD86B
:103C88002E8F03D02C6B2D6B2E6B2F6B3351800B2B
:103C9800381B33513325446F32BF4481445108E007
:103CA800442904E1306B316B326B336B328F03D0B4
:103CB800306B316B326B336B305131113211331140
:103CC80007E1ADD8800E2E137F0E2F1392D87F0CEC
:103CD800435102E1A4D88DD0445143C134F1356B2E
:103CE800345F000E355B7F0E34253D6F000E3521A5
:103CF8003E6F2CC139F12DC13AF12EC13BF12FC1D4
:103D08003CF18DD83F6B406B416B426B446B1BD0D1
:103D1800445106E0D89039373A373B373C3772D8A8
:103D28003051395D31513A5932513B5933513C592F
:103D380009E3428D3051395F31513A5B32513B5B77
:103D480033513C5B442B190E4465E2D739513A1183
:103D58003B113C1106E03F8104D054D83D07D8A060
:103D68003E072EAFFAD7446B42AF13D03F51346FA2
:103D78004051356F4151366F7F0E4215376F3451C0
:103D880035113611371101E002D02CA102D0010EF5
:103D9800446F44510EE02C2B000E2D232E232F238D
:103DA8002FA107D02F352F332E332D332C333D4BF6
:103DB8003E2B3EBF07D03E5102E13D2903E33E6B57
:103DC8003D692DD83EBF04D03E5106E13D0504E2D1
:103DD8003D6B3E6B24D8386B3DC143F143A102D003
:103DE8002E8F01D02E9FD89043312F6F38512F132B
:103DF80000D02CC12CF12DC12DF12EC12EF12FC1D7
:103E08002FF11200D8902C372D372E372F3742BF7D
:103E18002C81D8903F3740374137423712002C6BFE
:103E28002D6B2E6B2F6B1200010121EE93F0D6D86B
:103E3800DF9021EE91F0D2D8DF6A21EE92F0CED851
:103E4800DF6A21EE93F0CAD8DF94780E0101E825E5
:103E58000001806F010E0101E9210001816F4E0E02
:103E68000001826FFD0E19EC17F036EC49F0E8C13D
:103E780080F0E9C181F0C00E0001826FFE0E19ECDE
:103E880017F036EC49F0190E0101E8250001806FA2
:103E9800000E0101E9210001816F430E0001826FCC
:103EA800FE0E19EC17F036EC49F0320E0101E82548
:103EB8000001806F000E0101E9210001816F8F0E62
:103EC8000001826FFF0E19EC17F036EC49F04B0E2B
:103ED8000101E8250001806F000E0101E9210001C0
:103EE800816F200E0001826FFF0E19EC17F036EC7F
:103EF80049F0010121EE77F071D8040EDF6E19D078
:103F0800010121EE91F06AD8DF6A1DD0010121EE8E
:103F180091F064D8020E0BD0010121EE91F05ED829
:103F2800030E05D0010121EE91F058D8010EDF6E85
:103F38000AD00001D951E4E0010AF4E0030AE6E0FE
:103F4800010AEAE0EFD7E8C1CCF1E9C1CDF161ECB3
:103F58001CF0E8C1CCF1E9C1CDF162EC3AF0010105
:103F680021EE93F03BD8DFA42ED0010121EE93F08F
:103F780035D8DF941CD00001D96B0DD0010E00019B
:103F8800D96F1E0E0001DC6FDD6BDE6BDF6B03D0BB
:103F9800020E0001D96F010E0201636F14D0030EE7
:103FA8000001D96F12EC2BF0FDEC4EF00CD00101A2
:103FB80021EE91F013D8DF50DEE0010ADFE0030ABA
:103FC800E7E0010AECE0010121EE93F007D8DFB049
:103FD8001200060E0001DB19B6E01200E851D926DE
:103FE800E951DA2212000101CDD8DFA41200010143
:103FF800C9D8DF94FD0E0101E76FE869010121EEE0
:1040080077F0AAD80101E96FEA6BE751E927E8518F
:10401800EA23010121EE91F09FD80101EB6FEC6BCF
:10402800E951EB5DEC51800AED6FEA51800AED59D8
:1040380008E2010121EE91F08FD83BEC2CF0FDEF66
:104048004EF0010121EE91F087D80101E76FE86B8E
:10405800FD0EE96FEA69010121EE77F07DD80101D3
:1040680088D820E1E851EC191DE101017BD80C0E3C
:10407800DF60FDEF4EF00101EE6B0001C75164D81F
:10408800E80EDE6E030EDE6EDE6A0001C7513BEC01
:104098002CF00101EE6F0101EE511FE00001C72B6A
:1040A800FDEF4EF0010121EE91F056D80101E76FC6
:1040B800E86BFE0EE96FEA69010121EE77F04CD852
:1040C800010157D810E1E851EC190DE10001C75181
:1040D80002E157EF4BF00001C7070001C75134D880
:1040E80058D8FDEF4EF0010121EE91F035D80101CD
:1040F800E76FE86BE969EA69010121EE77F02CD8EE
:10410800010137D81FE1E851EC191CE10101EF6BFF
:1041180006D00101EF5118D83CD80101EF2B00015E
:10412800C7510101EF5DF5E30001C76B01011AD822
:10413800010EDF6E21EE92F0E551D926E651DA2222
:10414800010EDF6EFDEF4EF0030D000EF324D96E65
:10415800020EF420DA6E1200E551D926E651DA2271
:10416800DF50120021EE91F0E551D926E651DA220E
:104178001200EB6FEC6BE951EB27EA51EC23E751A6
:10418800EB19120021EE93F0E551D926E651DA2217
:104198001200DE6ADE6ADE6A1200A4C0D9FFA5C07A
:1041A800DAFFDECFA9F0DECFAAF0DECFABF0DECFAC
:1041B800ACF0A9C09AF0AAC09BF0ABC09CF0ACC010
:1041C8009DF03C0E0001B2D895EC3EF09AC0A4F2E6
:1041D8009BC0A5F29DD83C0EAED888EC37F087D8A6
:1041E8003C0EA4D895EC3EF09AC0A6F29BC0A7F26C
:1041F8008FD83C0EA0D888EC37F079D8180E96D80E
:1042080095EC3EF09AC0A8F29BC0A9F281D8180E8E
:1042180092D888EC37F080C0AAF281C0ABF2040EC5
:104228000201AA250001806F000E0201AB210001E6
:10423800816F836B070E826FF1EC43F080C0B0F2A0
:1042480081C0B1F20201AF6B460EAE6F0CD069D8D7
:1042580023EC45F085510201AA5F00018651020155
:10426800AB5BAE4BAF2B5DD823EC45F0855168D8DE
:10427800A66F8651800AA659EAE253D823EC45F086
:104288008551020BA96FAAC2B2F2ABC2B3F2020106
:10429800AC6BAD6B0AD0AA510201AA5F000EAB5BF2
:1042A800AC4BAD2B0001D890A933610E0201AC25AF
:1042B800F66EB80EAD21F76EF86A000EF822080007
:1042C800F5500001A911AA6FAA51A66FA76BA651B4
:1042D80037D8A86FA751800AA859DDE20201AA4B76
:1042E800AB2BA40E0001A46F020EA56F120080C0B4
:1042F800A9F081C0AAF082C0ABF083C0ACF0A9C01D
:104308009AF0AAC09BF0ABC09CF0ACC09DF0120024
:10431800A9C080F0AAC081F0ABC082F0ACC083F025
:104328001200AEC285F0AFC286F012009E6F9F6B7E
:10433800A06BA16B1200846F856B866B876B120074
:104348000201AA5DAB51800A000112000101336F1E
:104358006D0E0101336550D00A0E0001846F640EA2
:104368000001806F0101335111EC4DF073EC4BF0FB
:10437800010196D8D89027372837240E2727000E12
:10438800282370D840EC10F0640E0001846F0101FE
:10439800335173EC4BF0010190D8480E6BD84FECB9
:1043A80010F055EC10F01FEC17F099D80A0E000128
:1043B800806F0101335111EC4DF0010171D863D8C0
:1043C80051D840EC10F082D81FEC17F00AC12BF13D
:1043D8000BC12CF10CC12DF10DC12EF12BC10AF12D
:1043E8002CC10BF12DC10CF12EC10DF1000E0101F4
:1043F8007FD81FEC17F04BD00A0E0101336525D08A
:104408000001806F0101335111EC4DF0010148D8D2
:104418003AD828D840EC10F00A0E0001846F010148
:10442800335173EC4BF0010148D8240E23D84FECDC
:1044380010F055EC10F01FEC17F051D847D8000ECB
:10444800010156D81FEC17F022D0010133512ED8A4
:104458004FEC10F055EC10F0000E010149D81FEC9C
:1044680017F015D0DD0E2725F66EB70E2821F76E4A
:10447800F86A12002927000E2A23DD0E2925F66E78
:10448800B70E2A211200D8902737283712000AC100
:1044980023F10BC124F10CC125F10DC126F1120045
:1044A800276F286BD890273728371200040DDD0EA8
:1044B800F324F66EB70EF4201200296F2A6BD890F9
:1044C80029372A37D89029372A3712002FC10AF1FD
:1044D80030C10BF131C10CF132C10DF112000AC12A
:1044E8002FF10BC130F10CC131F10DC132F11200C5
:1044F8000E6F0F6F106F3F0E116F3F0C0001986F1A
:1045080060EC46F0180E0001C0250001866FFC0E15
:104518000001C1210001876F010E0001896F500E53
:10452800886FCCEC47F086C092F087C093F01E0EDF
:1045380000018D6F8E6B0001925100018D5F0001AB
:10454800935100018E5B0001985100018F6F906BB1
:104558008D518F5D8E51905914E298C080F0000102
:10456800816B010E000193D825EC4DF00001C0517C
:10457800000180250001966F0001C15100018121D1
:1045880025D098C080F00001816B010E00017FD812
:1045980025EC4DF080C08DF081C08EF092C080F087
:1045A80093C081F0010E000172D825EC4DF0000196
:1045B800805100018D270001815100018E23880E52
:1045C8008D250001966FDC0E00018E210001976F8A
:1045D80059D897EC4CF00001946F0001964B972B3B
:1045E80051D897EC4CF000018D6F8DC0BEF40001DE
:1045F800964B972B0001956B25D096C083F097C0FA
:1046080084F0F9EC3DF00001835100018D6F000149
:10461800845100018E6F0001855100018F6F906BEE
:104628000001955127D88DC0DEFF8EC0DEFF8FC0F8
:10463800DEFF90C0DEFF030E00019627000E9723D1
:104648000001952B28D80001955DD7E3010E0001E4
:10465800916F0001985103E10001940508E0000101
:10466800985103E00001945102E00001916B0001B0
:1046780091511200040D2D0EF324D96E030EF4206F
:10468800DA6E120096C081F097C082F01200836F34
:10469800500E826F500C24EEBEF0DE501200010165
:1046A800BED8DF9021EE91F0C1D8DF6A21EE92F0FA
:1046B800BDD8DF6AB4D8DF94780E0101E525000182
:1046C800806F010E0101E6210001816FD20E000109
:1046D800826FFD0E19EC17F036EC49F0E5C180F059
:1046E800E6C181F0FC0E0001826FFD0E19EC17F097
:1046F80036EC49F0190E0101E5250001806F000E26
:104708000101E6210001816F590E0001826FFE0E42
:1047180019EC17F036EC49F0320E0101E5250001DD
:10472800806F000E0101E6210001816FA10E0001DA
:10473800826FFC0E19EC17F036EC49F04B0E0101B4
:10474800E5250001806F000E0101E6210001816F5F
:10475800BF0E0001826FFB0E19EC17F036EC49F022
:10476800640E0101E5250001806F000E0101E621BC
:104778000001816FCC0E0001826FFD0E19EC17F05D
:1047880036EC49F0010121EE77F050D8050EDF6EC6
:10479800E5C1CCF1E6C1CDF161EC1CF0E5C1CCF18D
:1047A800E6C1CDF1BAEC3AF0010139D8DFA42ED038
:1047B800FDEC4EF016D0F7EC2FF021D0FEEC38F0DF
:1047C8001ED0010EE7EC24F01AD0000EE7EC24F01E
:1047D80016D052EC1BF02FD80001DA515AEC1BF01E
:1047E8000ED0010121EE91F021D8DF50E4E0010A5A
:1047F800E5E0030AE6E0010AE8E0070AEAE0010169
:104808000ED8DF900CD8DF94FDEC4EF0010107D8EC
:10481800DFB01200060E0001DB19BAE0120021EE2B
:1048280093F0E551D926E651DA221200E551D9264E
:10483800E651DA221200EAC251F1EBC252F112003B
:10484800F4EC2EF070D0010120EE1EF09CD8B2D806
:104858009FD80101B3D80AE2010182D80101CE51E3
:10486800DE26CF51DE22D051DE2277D0030E0101A1
:10487800B6EC14F0010192EC14F05AEC1BF06DD078
:10488800010120EE21F07FD810EE1BF0CC5180D82A
:10489800010194D80AE2010163D80101CE51DE5E1C
:1048A800CF51DE5AD051DE5A58D0030E0101B6EC72
:1048B80014F0010192EC14F05AEC1BF04ED00101F7
:1048C80020EE24F060D876D8E126CD516BD80101CE
:1048D80020EE2AF058D8DF84010120EE2AF053D8C0
:1048E800DF803BD0010120EE2AF04DD8DF8020EE9A
:1048F8002AF049D8DF9431D00001DB6BF9EC4DF098
:104908002CD0020E0001DB6FFDEC4EF0E9EC4CF010
:1049180024D0050E0001DB6F20D0010E0001DB6FF3
:10492800C6EC36F01AD00001CF51010AEAE0030ABA
:10493800E3E0010AEEE0050A86E0010A84E00F0AD6
:104948009FE0010A9DE0030ABAE0010AB8E0070AFD
:10495800C9E0010AC7E0030AE0E00001CF6B1200DA
:1049680020EE27F0CC51D926CD51DA22DECFCEF178
:10497800DECFCFF1DECFD0F120EE21F0CC51D92619
:10498800CD51DA221200CC51D926CD51DA221200AB
:10499800E126CD51E222DE50E65CDE50E658E650D4
:1049A800800A1200E222DECFE6FFDECFE6FFDECF8E
:1049B800E6FF120010EE21F0CC511200D46FDE5049
:1049C800800AD45912000301006F03012B912B9523
:1049D800030100511AE0EAC288F0EBC289F0ACEC9E
:1049E8004CF09DD8000120EC19F0A2EC38F09ED8CC
:1049F8000001806F030E816FA20E0001826FFC0E12
:104A080019EC17F036EC49F019D0E8C288F0E9C281
:104A180089F0ACEC4CF083D8000120EC19F0A2EC42
:104A280038F084D80001806F030E816FC00E00013A
:104A3800826FFB0E19EC17F036EC49F0CD0E03012E
:104A48001C6F4C0E1D6F3D0E1E6F03011F6B800EF9
:104A5800206F3F0E216FCD0E0301286F4C0E296F7A
:104A68003D0E2A6F22C325F323C326F324C327F35D
:104A780003012B913B0E03011A6FFF0E1B6F010EF2
:104A88000101CC6F030ECD6FE3EC40F0010E010184
:104A9800CC6F030ECD6FA3EC13F003012BB104D040
:104AA800060E0001DB19EBE0030100510EE0000ED9
:104AB80000012FD843D8FEEC35F024D88DEC33F024
:104AC800B3C0EAF2B4C0EBF20DD0000E000121D859
:104AD80035D8FEEC35F016D88DEC33F0B3C0E8F2DB
:104AE800B4C0E9F203012551221906E12651231920
:104AF80003E12751241902E0010E01D0000E020142
:104B08006313120088C0B3F089C0B4F08AC0B5F04E
:104B180012008B6F7A0E8C6F440E8D6F440C88C018
:104B2800A4F089C0A5F08AC0A6F0000CA4C022F3A6
:104B3800A5C023F3A6C024F3010E120022C388F0F7
:104B480023C389F024C38AF01200000120EE0AF082
:104B5800B2D8010EDBBE10D0DB5003E1460EDE5C9E
:104B68000BE320EE0AF0A7D8010EDBBE0BD0DB501A
:104B780003E18B0EDE5C06E301010069016902694D
:104B8800036966D020EE0AF096D8DECFB8F0DDCF04
:104B9800B9F06C0EB825A46F070EB921A56F20EEE9
:104BA80008F089D8DECFBAF0DDCFBBF0BA29A66FFE
:104BB800000EBB21A76F20EE06F07DD8DECFA8F04F
:104BC800DDCFA9F0AAEC3DF0A4C000F1A5C001F129
:104BD800A6C002F1A7C003F1070EA56FB20EA46F1D
:104BE800A76B010EA66FA96BA86FAAEC3DF0A451A4
:104BF8000101005F0001A5510101015B0001A651FF
:104C08000101025B0001A7510101035B000120EED5
:104C180004F051D847D839D8180E52D857EC47F075
:104C280020D8000120EE02F046D83CD82ED83C0E01
:104C380047D857EC47F015D8B4C0D9FFB5C0DAFF4C
:104C480031D8000122D83C0E3BD857EC47F009D8A0
:104C580000C1B4F001C1B5F002C1B6F003C1B7F0AC
:104C68001200BA518E250101006F0001BB518F213E
:104C78000101016F0001BC5190210101026F000187
:104C8800BD5191210101036F1200BBBFFF0EBC6F24
:104C9800BD6F00C18EF001C18FF002C190F003C159
:104CA80091F01200DECFB8F0DDCFB9F0B8C0BAF09D
:104CB800B9C0BBF0000CB451D926B551DA221200A4
:104CC800926F936B946B956B12000001A051A11128
:104CD800A21101E088D01200A0D8F8BA03D00800C9
:104CE800F55001D08BD80001866F876BA3C088F080
:104CF800A4C089F0A5C08AF0A6C08BF0A7C08CF02C
:104D08003CEC12F00001A3270001A02B000EA12308
:104D1800A22383D8F8BA03D00800F55001D06ED882
:104D2800000944E00001A7511BE1A4C08EF0010E68
:104D38000001A5250001A86F000E0001A6210001B1
:104D480063D80001A32500018F6F6ED8F5500001CC
:104D5800A4250001906F0001A35126EC4EF01AD053
:104D6800A4C08EF0010E0001A5250001A86F000E59
:104D78000001A621000148D80001A32500018F6F7A
:104D880053D8F5500001A4250001906F0001A351EC
:104D980043EC4EF0010E0001A5250001A86F000E9E
:104DA8000001A621000130D80001A327EF0E000161
:104DB800A36519D039D8F5CFA8F00001A8290001BA
:104DC800A427F00E0001806F0001A35111EC4DF0F3
:104DD8000001A36FA00E0001806F0001A45111EC27
:104DE8004DF00001A46F19D8F8BA03D00800F550A7
:104DF80001D004D8000901E06FD71200F6CFE9FF0F
:104E0800F7CFEAFFEF501200A96FA8C0F6FFA9C0BC
:104E1800F7FFF86A0800F5501200A0C0F6FFA1C01D
:104E2800F7FFA2C0F8FF1200A5C0F6FFA6C0F7FF63
:104E3800F86A08001200010121EE93F0F351D92617
:104E4800F4519BD8F351D926F451FBEC39F0F351C6
:104E5800D926F4518DD896D8DF9421EE77F092D8E0
:104E6800040EDF6E780E0101F3250001806F010E3C
:104E78000101F4210001816F2C0E0001826FFC0EEC
:104E880019EC17F036EC49F0F3C180F0F4C181F069
:104E9800CF0E0001826FFF0E19EC17F036EC49F0C7
:104EA800190E0101F3250001806F000E0101F421A4
:104EB8000001816FE40E0001826FFD0E19EC17F0FE
:104EC80036EC49F0320E0101F3250001806F000E27
:104ED8000101F4210001816FF00E0001826FFD0EC7
:104EE80019EC17F036EC49F04B0E0101F3250001DF
:104EF800806F000E0101F4210001816F200E000176
:104F0800826FFF0E19EC17F036EC49F0F3C1CCF1C3
:104F1800F4C1CDF161EC1CF0F3C1CCF1F4C1CDF1D9
:104F2800BAEC3AF0010121EE93F02CD8DFB014D09E
:104F3800060E0001DB1910E1E9D729D8120E4FEF50
:104F48001AF025D81E0E4FEF1AF0D0EC29F01FD812
:104F58000201E0514FEF1AF0010121EE91F012D851
:104F6800DF50010AEAE0030AECE0010AEEE0120071
:104F7800DA22DF6A21EE93F01200DA22DF9021EEC6
:104F880091F01200F351D926F451DA221200F3C13C
:104F9800D0F1F4C1D1F112000101B06BB06B37D080
:104FA8000101A6D80101AA250101636FF45001018E
:104FB800AB210101646F6A0E0101656FFB0E666F1C
:104FC800010E0101B025010137EC19F00101B051C2
:104FD800A8EC20F086D8FDEC4CF07CD8000120EC41
:104FE80019F0A2EC38F0A6C0AFF1A5C0AEF1A4C08C
:104FF800ADF10101AC6BACC169F1ADC16AF1AEC1F3
:105008006BF1AFC16CF145EC01F00101B02B00016F
:10501800C7510101B05DC4E30C0E0101B06114D0A9
:10502800010166D80101AA250001806FF450010131
:10503800AB210001816FE60E0001826FFF0E19ECB3
:1050480017F036EC49F013D0010152D80101AA2516
:105058000001806FF4500101AB210001816FAE0E99
:105068000001826FFB0E19EC17F036EC49F00101D4
:10507800B02B3ED80101AA250001806FF450010130
:10508800AB210001816F060E0001826FFD0E19EC45
:1050980017F036EC49F00101B02B2AD80101AA25F6
:1050A8000001806FF4500101AB210001816FC00E37
:1050B8000001826FFD0E19EC17F036EC49F0010182
:1050C80021EE77F0AA51D926AB51DA220101B02995
:1050D800DF6E120088C0A4F089C0A5F08AC0A6F0CF
:1050E800000CDECF88F0DECF89F0DDCF8AF0120029
:1050F800B051190DF3501200010190D8DF9021EE44
:1051080091F093D8DF6A21EE92F08FD8DF6A86D8C3
:10511800DF9421EE77F089D8030EDF6E780E010157
:10512800DA250001806F010E0101DB210001816F8A
:10513800DB0E0001826FFF0E19EC17F036EC49F018
:105148007ED832EC35F076D861EC1CF0CBC0DDF1BE
:1051580071D861EC1CF0DAC1CCF1DBC1CDF162ECA5
:105168003AF001015BD8DFA447D036D00001CBB3B9
:1051780004D00101DC6BDC2B02D00101DC6BDC47C5
:105188000001CB510101DC19FD0B22D00001CBB588
:1051980004D00101DC6BDC2B02D00101DC6BDC47A5
:1051A800DC470001CB510101DC19FB0B11D00001D8
:1051B800CBB704D00101DC6BDC2B02D00101DC6B26
:1051C800DC47DC47DC470001CB510101DC19F70B58
:1051D800DC190001CB6F0AD0010121EE91F025D82E
:1051E800DF50C4E0010AD2E0030AE1E028D832EC3B
:1051F80035F0010113D8DF94010110D8DFB004D0D5
:10520800060E0001DB19A4E00101DD510001CB19F4
:10521800010ED8B4000E02016313120021EE93F0C0
:10522800DA51D926DB51DA221200DA51D926DB51BC
:10523800DA221200DAC1CCF1DBC1CDF11200DAC1F9
:1052480087F0DBC188F012008AC08EF000018F6BF6
:10525800906B89358E3701E38F818E51936F8DC0A6
:105268008EF08F6B906B8C358E3701E38F818E516A
:10527800926F935109E09251935D0DE29351925DC3
:105288008E6F180E8E6507D08BC088F08CC089F0A1
:105298008DC08AF01200925109E09351925D0DE29F
:1052A8009251935D8E6F180E8E6507D088C088F076
:1052B80089C089F08AC08AF01200060E916F8ABFF1
:1052C800918F8DBF918D898F8A6B8C8F8D6B925149
:1052D800935D14E2D8908B378C378D3792079351B2
:1052E800921908E053D806E0F5D7D8908A33893365
:1052F8008833932B9251931917E0F7D79351925D06
:1053080013E2D890883789378A37930793519219CF
:1053180008E03CD806E0F5D7D8908D338C338B3332
:10532800922B92519319F8E191AF07D0881F891FEA
:105338008A1F882B000E89238A2391BD1FD8916B61
:1053480088518B2789518C238A518D238DAF03D0A7
:1053580015D8010E916F8BC080F08CC081F08DC084
:1053680082F093C083F091C084F028EC41F080C0B3
:1053780088F081C089F082C08AF012008B1F8C1FD0
:105388008D1F8B2B000E8C238D23000C910791C051
:105398008EF0070E8E17070C010E0001806F030EAA
:1053A800816F250E0001826FFC0E19EC17F036ECA8
:1053B80049F088D8600E0001846FEA0E8CD888EC1A
:1053C80037F00001805103011A6F7CD8E80E000104
:1053D800846F030E80D888EC37F0000180510301F8
:1053E8001B6F1AC31CF31BC31DF303011E91010E8F
:1053F8000101CC6F030ECD6FA5EC42F0010E010147
:10540800CC6F030ECD6F54EC1DF003011EB104D018
:10541800060E0001DB19EBE003011B510001806F50
:10542800816B80BF8107030E0001836FE80E826FD6
:1054380025EC4DF0000180C0DEF181C0DFF1000EE7
:105448000101DFBFFF0EE06FE16F03011A51000198
:105458008E6F000E8EBFFF0E8F6F906F916F600E74
:105468000001926FEA0E936F5DEC1CF057EC47F069
:105478000101DE5100018E250201E06F0101DF51BB
:1054880000018F210201E16F0101E051000190212B
:105498000201E26F0101E151000191210201E36F74
:1054A800010E0301006F03011C511A1906E10301E3
:1054B8001D511B1902E10301006B03010051020198
:1054C80063131200E0C280F0E1C281F0E2C282F010
:1054D800E3C283F01200856F000E866F876F000CA1
:1054E80001018CD8DF9021EE91F08FD8FBEC39F0D8
:1054F8008CD8DA22DF6A82D8DF9421EE77F085D85B
:10550800DA22EAEC30F00101DA250001806F010EA1
:105518000101DB210001816FF00E0001826FFF0E97
:1055280019EC17F036EC49F00001CBA10AD071D87C
:105538009D0E0001826FFB0E19EC17F036EC49F056
:1055480009D067D8250E0001826FFB0E19EC17F001
:1055580036EC49F0DAC1CCF1DBC1CDF1F4EC4BF01B
:10556800CBC0DDF1DAC1CCF1DBC1CDF161EC1CF0CF
:10557800DAC1CCF1DBC1CDF162EC3AF001013ED8E1
:10558800DFA42AD001013AD8DF940001CBB104D0BE
:105598000101DC6BDC2B02D00101DC6B0001CB517B
:1055A8000101DC19FE0BDC190001CB6F0001CBA156
:1055B8000AD02FD89D0E0001826FFB0E19EC17F050
:1055C80036EC49F009D025D8140E0001826FFC0E84
:1055D80019EC17F036EC49F0010110D8DFB004D00F
:1055E800060E0001DB19BEE00101DD510001CB19F7
:1055F800010ED8B4000E02016313120021EE93F0DD
:10560800DA51D926DB51DA221200DA51D926DB51D8
:105618001200DAC180F0DBC181F01200000E000137
:10562800806F030E816F470E0001826FFD0E19EC2B
:1056380017F036EC49F003012A9103012A95CD0EA3
:1056480003011B6FCC0E1C6F3D0E1D6F000E030176
:105658001E6F200E1F6F410E206FCD0E0301276FA6
:10566800CC0E286F3D0E296FDCC080F0DDC081F0C4
:10567800DEC082F0DFC083F0010E6BEC2EF080C03C
:105688002CF181C02DF182C02EF183C02FF1000EC4
:105698000101306F316F7A0E326F440E336F36EC82
:1056A8001EF001012DC1E5F12EC1E6F12FC1E7F190
:1056B800E5C121F3E6C122F3E7C123F321C324F3B3
:1056C80022C325F323C326F3290E0301196FFF0E06
:1056D8001A6FFDEC4EF0000E0101CC6F030ECD6F7A
:1056E800E3EC40F0000E0101CC6F030ECD6FA3EC8C
:1056F80013F003012AB104D0060E0001DB19EBE018
:10570800000E00018DEC25F021C388F022C389F03A
:1057180023C38AF0FEEC35F086EC25F08DEC33F0EF
:10572800B3C0DCF0B4C0DDF0B5C0DEF0B6C0DFF069
:1057380003012151241906E12251251903E12351BE
:10574800261902E0010E01D0000E020163131200B7
:105758007E86D00E0001886FC90EE82EFED7882FEE
:10576800FCD700D0D0EC48F0300EEDEC4EF06E0EC9
:10577800EDEC4EF0310EEDEC4EF0D70EEDEC4EF0B8
:105788009F0EE6EC4EF0300EEDEC4EF0940EEDEC84
:105798004EF0AE0EEDEC4EF0D10EEDEC4EF0200ECC
:1057A800EDEC4EF00B0EE6EC4EF0810EEDEC4EF00B
:1057B8000201EC513F0BE6EC4EF0ECC288F0EDC272
:1057C80089F0060E00018A6FD890893388338A2FB2
:1057D800FBD78851070BE6EC4EF0310EEDEC4EF09E
:1057E800320EEDEC4EF0000EE6EC4EF0010EE6EC5B
:1057F8004EF0020EE6EC4EF0510EEDEC4EF0FB0EC4
:10580800E6EC4EF0300EEDEC4EF0F00EEDEC4EF016
:10581800100EE6EC4EF0CA0EEDEC4EF0000EE6EC83
:105828004EF09F0EE6EC4EF0000EE6EC4EF0BC0E8D
:10583800EDEC4EF0000EE6EC4EF00C0EEDEC4EF0FA
:10584800A60EEDEC4EF0310EEDEC4EF0400EEDEC08
:105858004EF0300EEDEC4EF0760EEDEC4EF0250EDF
:10586800EDEC4EF057EC4BF0AF0EEDEF4EF00301C0
:10587800006FCD0E03011C6FCC0E1D6F3D0E1E6F09
:105888001F6BC80E206F420E216F03010051A8EC58
:1058980020F075EC28F0FDEC4CF06EEC28F00001DF
:1058A80020EC19F0A2EC38F0A4C022F3A5C023F331
:1058B800A6C024F322C325F323C326F324C327F366
:1058C800010E0101636F030E646FE10E0101656F44
:1058D800FB0E666F00C367F10101686B45EC01F0D0
:1058E800CD0E0301286FCC0E296F3D0E2A6F320EA4
:1058F80003011A6FFF0E1B6F03012B91FDEC4EF095
:10590800010E0101CC6F030ECD6FE3EC40F0010EE8
:105918000101CC6F030ECD6FA3EC13F003012BB183
:1059280004D0060E0001DB19EBE003012BA529D0FA
:10593800000E00018DEC25F022C388F023C389F006
:1059480024C38AF0FEEC35F086EC25F08DEC33F0BC
:1059580003010051A8EC20F00001B3C0DEFFB4C081
:10596800DEFFB5C0DEFF03012251251906E12351F0
:10597800261903E12451271904E003010051DBEC47
:105988004BF003012BB5010C000C640E0001C86537
:1059980002D00001C86F000E0001806F030E816FF6
:1059A800C10E0001826FFF0E19EC17F036EC49F0BA
:1059B800D70E03011B6F230E1C6F3C0E1D6FCD0EFF
:1059C80003011E6F4C0E1F6F3E0E206FD70E030192
:1059D800276F230E286F3C0E296F0001C851D9ECA0
:1059E8004DF088C0A4F089C0A5F08AC0A6F0000ECA
:1059F800000120EC19F0A2EC38F0A4C021F3A5C0F6
:105A080022F3A6C023F321C388F022C389F023C35D
:105A18008AF0F9EC49F088C024F389C025F38AC0DC
:105A280026F303012A913B0E0301196FFF0E1A6F2B
:105A3800000E0101CC6F030ECD6FE3EC40F0000EB9
:105A48000101CC6F030ECD6FA3EC13F003012AB153
:105A580004D0060E0001DB19EBE0000E00018DEC0E
:105A680025F021C388F022C389F023C38AF0FEEC15
:105A780035F086EC25F08DEC33F00001B3510001D0
:105A8800C86F03012451211906E12551221903E1A8
:105A98002651231902E0010E01D0000E0201631302
:105AA8001200020144510001605D0001696F0201AA
:105AB80045510001615900016A6F02014651000118
:105AC800625900016B6F02014751000163590001DF
:105AD8006C6F24EEBEF0DF5006E100016D6B6E6B5B
